:4000000080673030303030307e3030307e3030307e3030307e3030307e3030307e3030307d038c7e7e3030307e3030307e3030307e3030307e3030307e3030307e30303079
:400040007e3030307e3030307e3030307e3030307e3030307e3030307e3030307e3030307e3030307d039c7e711062fa0062e38770ef50202850402850602862e33841fe7c
:40008000fb50804e62e33855f80055f900711062e00a70ef62e338627105627505627905627d0562d10750004e62d30762d00062d50062d40071c07c032762d00050025789
:4000c000200828535318750900284b5153800475090062e300082860d574a04b1875090008285353187509000828a01c53521875090008283f534753ffb0065dd57460d53d
:40010000187a52bfeb8fc9187509000828535250003f534753ffb0085dd57460d550007a52bfef188faa18711043e32070ef62e000711062e00b43e78070ef62e2007c032b
:40014000d48fff50107f303030303030303030303030303030303030303030303030303030303030303030303030303030303030303030303030303030303030303030305e
:4001800030303030303030303030303030303030303030303030303030303030303030302304211f22006028660063006500e600e700d600b000b100b200b333b433b500c8
:4001c000b600b855b900ba10bb33bc33bd00be00c000c100c220c333c433c500c600c855c900ca30cb33cc33cd00ce006c006d006e006f00ff203021072240610069006055
:400200000062006733683363006600d100d300d000d200e1ffe201dfffde02dd00e700ff090b70ef620000711062003f6201c070ef6203c062020071106202006203007018
:40024000ef62010062040071106204006205ff70ef6207ff620600711062060062070070ef62050062080071106208006209ff70ef620bff620a007110620a00620b007072
:40028000ef620900620c007110620c00620d0070ef620f00620e007110620e00620f0070ef620d00621000711062100062110070ef621300621200711062120062130070ae
:4002c000ef621100621400711062140062150070ef621700621600711062160062170070ef621500621800711062180062190070ef621b00621a007110621a00621b0070ee
:40030000ef621900621c007110621c00621d0070ef621f00621e007110621e00621f0070ef621d0070ef7f5504007c03317c02227f1070ef500067500157a07c034c500107
:4003400067500157f57c034c70ef207f380210084f56fc00d00456fc01182070ef62e30010082839ffa01f4f48fc01a003711054fd18207509001008284f59fd6100182046
:400380007509008fd738fc703f71c07f7d07da7e43e1017f41e1fe7f4323017f2e00014702ffa0037a024701ffa0037a0176037e43e0407f62d0005000530053015302531c
:4003c000037f62d0005500004700ffaffc55000078bff67f104f38035600007101107c03947c03987c03b07c03b42080a4520054025601003d0100b0063d0200a02b3d0185
:4004000000b0063d0201a0353d0100b0063d0202a03c3d0100b0063d0203a0413d0100b0063d0204a04880537c07cb50f00808080850f008087c04aa38fa8042500f08084c
:40044000080850f008087c04aa38fa8031500f0808080808087c04aa38fa802250f008080808500f08087c04aa38fa80115000085005087c07b738fe80045600003d000486
:40048000d005770080045600001050407c03c2208f5c38fd208fff62d0002e0420510460007f2604df510460007f104f3808560101560000807e9443402301535252fb23b7
:4004c000003900b0063c5200a009560301560200800756030056020062d0005104535252032c525152530452f82301535252f72300390093c7402301535252f92300390031
:40050000b0063c5200a009560704560600800756070056060062d0005104535252072c5251525304510460002e04085104600066016c003d0000bf7f3d0100bf7a62d00039
:400540002e04105104600038f8207f104f3808560101560000809593a2402301535252fb23003900b0063c5200a009560301560200800756030056020062d0005104535269
:400580005203936840535252f960d43e5253533e5253525201245252002453931f400102535252f9090060d43e5253533e5253525201245252002453b0063c5200a0095628
:4005c0000704560600800756070056060062d0005104535252072c5251525304510460002e04085104600066016c003d0000bf683d0100bf6362d0002e04105104600038bb
:40060000f8207f104f380856010156000080a192ea40535252fb60d43e5253533e5253525201245252002453b0063c5200a009560301560200800756030056020062d000cd
:4006400051045352520392a440535252f960d43e5253533e5253525201245252002453925b400102535252f9090060d43e5253533e5253525201245252002453b0063c52f6
:4006800000a009560704560600800756070056060062d0005104535252072c5251525304510460002e04085104600066016c003d0000bf5c3d0100bf5762d0002e041051af
:4006c00004600038f8207f104f380856010156000080cd922640535252fb60d43e5253533e5253525201245252002453b0063c5200a009560301560200800756030056023b
:400700000062d0005104535252032c525152530452fc0102535252fb090060d43e5253533e5253525201245252002453b0063c5200a0095605025604008007560500560463
:400740000062d0005104535252052c525152530452fc0104535252fb090060d43e5253533e5253525201245252002453b0063c5200a0095607045606008007560700560615
:400780000062d0005104535252072c5251525304510460002e04085104600066016c003d0000bf303d0100bf2b62d0002e04105104600038f8207f104f62d00052fc5355f2
:4007c00052fb5354107c039020207f62d000555500555400107c0394207f71c0085dd0085dd3085dd4085dd50862d000515308515208515108515008514f08514e08514dfe
:4008000008514c08514b08514a085149085148085147085146085145083c5400b00d3c5500b008107c039420805462d0005156535255530065526b5365526b5351550452eb
:4008400051540c535153085152085156555001555100210fa00b62d00065506b5178bff762d0005151085150089ce038fc62d0005156010153563910c00455560062d000db
:4008800018534518534618534718534818534918534a18534b18534c18534d18534e18534f1853501853511853521853531860d51860d41860d31860d0187e30b0063c5249
:4008c00000a009560502560400800756050056040062d000510462d000535252052c52515262d000530462d00052fa7f2c52515262d000530462d00052fa7f62d0002604fd
:40090000e05104600062d00052fc7f00050005000a36fe00000101e00002001c000462030004b5008008f480400c6480400c0300400a0000400800004004000080030001e4
:400940000000fe06000001f800400005005403000000ff0030303030303030303030303030303030303030303030303030303030303030303030303030303030303030309f
:400980003030303030303030303030303030303030303030303030303030303030303030303030303030303030303030303030303030303030303030303030303030303037
:4009c00030303030303030303030303030303030303030303030303030303030303030303030303030303030303030303030303030303030303030303030303030303030f7
:400a000030303030303030303030303030303030303030303030303030303030303030303030303030303030303030303030303030303030303030303030303030303030b6
:400a40003030303030303030303030303030303030303030303030303030303030303030303030303030303030303030303030303030303030303030303030303030303076
:020000040010ea
:020000040020da
:02000000dcc65c
:00000001ff
