:4000000080673030303030307e3030307e3030307e3030307e3030307e3030307e3030307e3030307e3030307d039d7e7e3030307e3030307e3030307e3030307e30303068
:400040007e3030307e3030307e3030307e3030307e3030307e3030307e3030307e3030307e3030307d039e7e711062fa0062e38770ef50202850402850602862e33841fe7a
:40008000fb50804e62e3385dd00862d00055fa014f5b010353f955f83a500600711051fc294060ea70ef1860d055f80055f900711062e00270ef62e33862710562750562a2
:4000c0007905627d0562d10750004e62d30762d00062d50062d40071c07c032f62d000500257280828530e18750900284b510e800475090062e300082860d574a04b187578
:4001000009000828530e187509000828a01c530d1875090008283f0e470effb0065dd57460d5187a0dbfeb8fc9187509000828530d50003f0e470effb0085dd57460d550b0
:40014000007a0dbfef188faa18711043e32070ef62e000711062e00343e78070ef62e2007c06398fff50107f303030303030303030303030303030303030303030303030be
:4001800030303030303030303030303030303030303030303030303030303030303030308000815f826083082b0029002a006028660063176500e600e700d600b000b10023
:4001c000b200b333b433b500b640b855b900ba10bb33bc33bd00be00c000c100c220c333c433c500c600c855c900ca30cb33cc33cd00ce006c006d006e006f00ff280d2987
:40020000012a4761006900600162016733683363006600d100d300d000d200e144e200df3ede01dd00e700ff0ad270ef620000711062007f62018070ef62038062020071b9
:400240001062020062030070ef62010062040071106204a862055770ef620754620608711062060062070070ef62050062080071106208006209ff70ef620bff620a007125
:4002800010620a00620b0070ef620900620c007110620c00620d0070ef620f00620e007110620e00620f0070ef620d00621000711062100062110070ef62130062120071be
:4002c0001062120062130070ef621100621400711062140062150070ef621700621600711062160062170070ef621500621800711062180062190070ef621b00621a0071fe
:4003000010621a00621b0070ef621900621c007110621c00621d0070ef621f00621e007110621e00621f0070ef621d0070ef7f55040055067f5507805505007c03427c0298
:400340002a7f1070ef500067500157a07c035d500167500157fd7c035d70ef207f380210084f56fc00d00456fc01182070ef62e30010082839ffa01f4f48fc01a00371106e
:4003800054fd18207509001008284f59fd610018207509008fd738fc703f71c07f7e2e00014702ffa0037a024701ffa0037a0176037e50018003500062d0002900a0062e7e
:4003c000052080042605df51056004703f71c07f21034f085d8321fc2b00608318703f71c07f6265016280a06265684380004380004380004380004380004380005d80212b
:400400001f498020b003407f737f081028b00420187f902b201875dff2748fef303132333435363738394142434445460867676767210fffe7900818210fffe090017f90bf
:40044000650867676767210f903b18210f40404090337f90510867676767210f900918210f40404090017f0862d0002604805104600018210f29102a046000530440218fd9
:40048000530460007f0862d0002604802e04205104600018210f29302a04600053044021af530460007f0862d000260480510460002606f051067110600070ef2e04405140
:4004c000046000401057ff2e04505104600040405d00082604c0510460004040402e04505104600040402604c051046000182108a00479bfd3202e067f51067110600070b6
:40050000ef187f62d0002606802e067f2607805106711060005107600170ef50fa906750fa906350039f405052905b50039f3890639061905f50039f2e505a904950029fd9
:4005400026505a904150089f0a505a903950019f02505a903150069efa500e9ef6502c9ef250089eee500c9eea50039ee6505a90157f80c094d4210310fff74f03ff209ecf
:40058000d2703f71c07f900c78bffc7f08193a7c010101010871105de070ef21073905d006ffe978bffe187f4f52fd210308ffc203fc9e9f3dfa00b005502080133dfa09d6
:4005c000d00952fa7856fa00800617fa0850079e6e18787bfbbfd7703f71c07f4f080850409e7056000156010852003b01d0055000800350ff9e487b01bfef77003d00090c
:40060000bfe51818500c9e4b703f71c07f0010181c1e1f1f0010080402010050018003500062d0002900a0062e0580800426057f51056004703f71c07f104f3885710110c6
:400640007c05037c05dc7c03b67c061f50037c03d020560000801b62d0005200010610085002085200085001087c05a838fc2077003d000bcfe2560000801d62d0005200fc
:40068000010610085002085200010b085001087c05a838fc2077003d000bcfe0560000801d62d00052000106100850020852000116085001087c05a838fc2077003d000b21
:4006c000cfe08368107c03b2205601008061107c061b7c03e22062d000530e550c075a0b060b025201020b530b50000a0c60d5510e3f0b107c061f2062d000550e075a0d50
:40070000060d025201020d530d50000a0e530e60d43e0d7a0d530c060c1f510e60d5510c3f0d3d0100b006107c03b62077013d0181cf9c56010082ef56840056830056007a
:4007400000805162d0005200530d550e005201530b550c00936440650b6b0c510b020d530d510c0a0e530e5a0b060b02510b040d0e0e07510e60d43e0d530d550e00470d93
:4007800080a004550eff62d000510d0584510e0d8377003d0003cfac50000850210852830852840862d0007c0a3218548418548338fe528401061008500208930a4008506a
:4007c00001087c05a838fc20568400568300560003805162d0005200530d550e005201530b550c00650b6b0c92d040510b020d530d510c0a0e530e5a0b060b02510b040d2e
:400800000e0e07510e60d43e0d530d550e00470d80a004550eff62d000510d0584510e0d8377003d0006cfac50000850210852830852840862d0007c0a3218548418548388
:4008400038fe528401061008500208927a40530e060e01510e085001087c05a838fc20568400568300560006805162d0005200530d550e005201530b550c00650b6b0c9242
:400880003940510b020d530d510c0a0e530e5a0b060b02510b040d0e0e07510e60d43e0d530d550e00470d80a004550eff62d000510d0584510e0d8377003d000acfac500a
:4008c0000008502c0852830852840862d0007c0a3218548418548338fe52840106100850020891e340530e060e02510e085001087c05a838fc2056840056830056000a8068
:400900005162d0005200530d550e005201530b550c00650b6b0c91a240510b020d530d510c0a0e530e5a0b060b02510b040d0e0e07510e60d43e0d530d550e00470d80a0f5
:4009400004550eff62d000510d0584510e0d8377003d000dcfac50000850210852830852840862d0007c0a3218548418548338fe528401061008500208914c40530e060e61
:4009800003510e085001087c05a838fc2056840056830056000d805162d0005200530d550e005201530b550c00650b6b0c910b40510b020d530d510c0a0e530e5a0b060bdd
:4009c00002510b040d0e0e07510e60d43e0d530d550e00470d80a004550eff62d000510d0584510e0d8377003d0010cfac50000850210852830852840862d0007c0a321815
:400a0000548418548338fe52840106100850020890b540530e060e04510e085001087c05a838fc2077013d0108cd0e8c98387b208fff104f50003dfb80c00d37fcff77fc38
:400a400037fbff0dfb50c03df980c00e37faff77fa37f9ff0ff9003180087c0a80186ad00c37fcff37fbff77fc0ffb006ad00c37faff37f9ff77fa0ff90020703f71c07f37
:400a80005dd00862d00050005309530a55081066fc6cfb6b096b0a51091bfa510a1bf9c009530a52fa1c0977fc7a08bfe3510954fa510a54f91860d07f30650b6b0c650bfd
:400ac0006b0c650b6b0c7f520160e862e905405deb7fff003030303030303030303030303030303030303030303030303030303030303030303030303030303030303030e8
:400b000030303030303030303030303030303030303030303030303030303030303030303030303030303030303030303030303030303030303030303030303030303030b5
:400b40003030303030303030303030303030303030303030303030303030303030303030303030303030303030303030303030303030303030303030303030303030303075
:400b80003030303030303030303030303030303030303030303030303030303030303030303030303030303030303030303030303030303030303030303030303030303035
:400bc00030303030303030303030303030303030303030303030303030303030303030303030303030303030303030303030303030303030303030303030303030303030f5
:020000040010ea
:020000040020da
:02000000207f5f
:00000001ff
